:1000000009C021C020C01FC01EC01DC01CC01BC015
:10001000CBC019C011241FBECFE9CDBF10E0A0E6B0
:10002000B0E0E2EFF2E002C005900D92AA36B1070F
:10003000D9F720E0AAE6B0E001C01D92AF36B207C2
:10004000E1F7AFD054C1DCCF80916A0090916B0092
:100050003DD19093680080936700809165009091F6
:10006000660034D1909364008093630080916100B6
:10007000909162002BD18093600008950F931F939D
:10008000CF93DF9300916C00C0E0D0E010E080914E
:100090006C0090E0801B910B039738F4A7D0AED092
:1000A000C817D907A4F7EC01F2CFCE01DF91CF91A9
:1000B0001F910F9108950F931F93CF93DF93C091DA
:1000C0006C00C4988C0185E0169507958A95E1F738
:1000D000D0E0D4DF20916700309168008217930749
:1000E00018F4C49A81E00AC080916C0090E08C1BE7
:1000F0009D0B8017910768F3C49A80E0DF91CF9140
:100100001F910F910895C098C0E0B8DF209167005B
:100110003091680028173907C0F781E087D08091B7
:10012000630090916400C7DF8111EECFCF5FC39A67
:1001300082E07CD02FE789EA93E021508040904014
:10014000E1F700C0000082E071D02FE789EA93E078
:10015000215080409040E1F700C0000082E066D06E
:100160002FEF8BE49DE1215080409040E1F700C0EB
:10017000000080916000C81708F0FFCFC398C5CF7A
:10018000BC9ABB9A0895FCDF2CD0C49AC39881E432
:100190001CD074DF90936E0080936D0084EF91E02B
:1001A00076C052DFF0DFAFDF1F920F920FB60F92D3
:1001B00011248F9380916C008F5F80936C008F91DE
:1001C0000F900FBE0F901F901895A8952FB7F89419
:1001D00091B5986191BD81BD2FBF10926C0078944C
:1001E000089581E087B983E886B90895369A3699EB
:1001F000FECF84B125B190E0922B089540916D001F
:1002000050916E009A0163E0220F331F6A95E1F767
:10021000241B350B820F931F73E0969587957A9573
:10022000E1F790936E0080936D000895EF92FF9236
:100230000F931F93CF93082F3AD0E12CF12C10E0AD
:10024000E016F106DCF4C0E88C2F3BD087EB9BE096
:100250000197F1F700C00000C150C031A9F78C2F01
:1002600030D087EB9BE00197F1F700C00000CF5F33
:10027000C038A9F79FEFE91AF90AE2CF83B7887F60
:1002800083BFCF911F910F91FF90EF9008950FD0F2
:1002900080E117D02FE789EA93E021508040904019
:1002A000E1F700C0000083B7887F83BF0895F8940A
:1002B000B99AC19A82E08FBD8FB580618FBD789465
:1002C000089593B7926093BF86BF0895A8E142E076
:1002D00002C0A82F862FE82FE199FECF05C0EEBB04
:1002E000E09AE3950DB20D924150C8F70895F89445
:0202F000FFCF3E
:0A02F200030400A00F0200700200D8
:00000001FF
