:1000000009C016C015C014C013C012C011C010C062
:10001000A6C00EC011241FBECFE9CDBF20E0A0E6D0
:10002000B0E001C01D92A336B207E1F796D022C11D
:10003000E7CF0F931F93CF93DF93C0916100D091CF
:10004000620035E0CC0FDD1F3A95E1F700E010E0EB
:10005000809161009091620025E0880F991F2A9598
:10006000E1F78C1B9D0B8436910540F4A0D0A7D0FE
:1000700090E00817190764F78C01EACFC801DF91F7
:10008000CF911F910F9108950F931F93CF93DF93FB
:100090008C01C0916100D091620035E0CC0FDD1F72
:1000A0003A95E1F7C498C5DF843E92401CF4C49AA7
:1000B00081E010C0809161009091620025E0880F7E
:1000C000991F2A95E1F78C1B9D0B8017910758F318
:1000D000C49A80E0DF91CF911F910F910895A9DF1D
:1000E000853E92400CF181E081D080E797E1CCDF42
:1000F00081111AC0C39882E079D08FE799EA23E092
:10010000815090402040E1F700C0000082E06ED0B6
:100110008FE799EA23E0815090402040E1F700C04A
:10012000000082E063D0C39A8FE799EA23E0815010
:1001300090402040E1F700C00000D1CF31D0BC9A00
:10014000BB9A0895FBDFC49AC39A73DF8093600063
:1001500084EF91E079D081E419C0F4DFC0DF1F9211
:100160000F920FB60F9211248F939F93809161008D
:1001700090916200019690936200809361009F913C
:100180008F910F900FBE0F901F901895A8952FB7C5
:10019000F89491B5986191BD81BD2FBF7894089571
:1001A00087B1816287B986B1836886B90895369A26
:1001B0003699FECF84B125B190E0922B08954091FD
:1001C000600050E09A0193E0220F331F9A95E1F707
:1001D000241B350BA901480F511DCA0123E0959539
:1001E00087952A95E1F7809360000895EF92FF923A
:1001F0000F931F93CF93E12CF12C082F10E0E01602
:10020000F106DCF4C9E08C2F2CD08FE295E7019742
:10021000F1F700C00000C150C130A9F78C2F21D0E8
:100220008FE295E70197F1F700C00000CF5FC9307A
:10023000A9F79FEFE91AF90AE2CF13BECF911F91F8
:100240000F91FF90EF90089581E00BD02FEB84ED9C
:1002500091E0215080409040E1F700C0000013BEC3
:100260000895F894B99A92E49FBD93E093BF78946F
:0802700086BF0895F894FFCF4A
:00000001FF
