:1000000009C016C015C014C013C012C011C010C062
:1000100025C00EC011241FBECFE9CDBF20E0A0E651
:10002000B0E001C01D92A136B207E1F702D053C083
:10003000E7CF41D081E423D0BC9AC49AC0E12BD051
:100040002091600030E08091600090E0821B930B73
:100050004F97C8F388B38C2788BBF1CF1F920F92BC
:100060000FB60F9211248F93809160008F5F809361
:1000700060008F910F900FBE0F901F901895A8955C
:100080002FB7F89491B5986191BD81BD2FBF1092A3
:100090006000789408950FD080E118D02FE789EAA6
:1000A00093E0215080409040E1F700C0000083B70A
:1000B000887F83BF0895F894B99AC1988FB58260FC
:1000C0008FBD8FB580618FBD7894089593B792608E
:0A00D00093BF86BF0895F894FFCF98
:00000001FF
