:1000000009C021C020C01FC01EC01DC01CC01BC015
:100010009DC019C011241FBECFE9CDBF10E0A0E6DE
:10002000B0E0EAE7F2E002C005900D92A236B10717
:10003000D9F720E0A2E6B0E001C01D92A536B207D4
:10004000E1F782D018C1DCCF0F931F93CF93DF93DA
:100050000091630010916400C0E0D0E080916300E3
:1000600090916400801B910B8436910540F4A0D0E0
:10007000A7D090E0C817D9078CF7EC01EFCFCE01DD
:10008000DF91CF911F910F9108950F931F93CF93FD
:10009000DF93EC010091630010916400C498D4DFF9
:1000A000843E92401CF4C49A81E00BC080916300AE
:1000B00090916400801B910B8C179D0780F3C49A6C
:1000C00080E0DF91CF911F910F910895BDDF853EB4
:1000D00092400CF181E08BD080E797E1D6DF81116F
:1000E0001AC0C39882E083D08FE799EA23E0815059
:1000F00090402040E1F700C0000082E078D08FE718
:1001000099EA23E0815090402040E1F700C00000D0
:1001100082E06DD0C39A8FE799EA23E08150904046
:100120002040E1F700C00000D1CF3BD0BC9ABB9A81
:100130000895FBDFC49AC39A87DF8093620084EF3F
:1001400091E083D081E423C0F4DFC0DF1F920F92DF
:100150000FB60F9211248F939F938091600081506E
:100160008093600081110CC08091630090916400C5
:10017000019690936400809363008FE18093600008
:100180009F918F910F900FBE0F901F901895A8957B
:100190002FB7F89491B5986191BD81BD2FBF789428
:1001A000089587B1816287B986B1836886B9089559
:1001B000369A3699FECF84B125B190E0922B0895FE
:1001C0004091620050E09A0193E0220F331F9A950C
:1001D000E1F7241B350BA901480F511DCA0123E08B
:1001E000959587952A95E1F7809362000895EF929F
:1001F000FF920F931F93CF93E12CF12C082F10E067
:10020000E016F106DCF4C9E08C2F2CD08FE295E7E4
:100210000197F1F700C00000C150C130A9F78C2F41
:1002200021D08FE295E70197F1F700C00000CF5F82
:10023000C930A9F79FEFE91AF90AE2CF13BECF91AF
:100240001F910F91FF90EF90089581E00BD02FEB5D
:1002500084ED91E0215080409040E1F700C0000023
:1002600013BE0895F894B99A92E49FBD93E093BFAA
:0A027000789486BF0895F894FFCF3C
:02027A001F0063
:00000001FF
