:10000000CF93DF93F89483E090E090936200809325
:1000100061007894C0E0D0E080916100909162002E
:10002000892B41F098D09FD090E0C817D907A4F74A
:10003000EC01F2CFCE01DF91CF910895C498F894EE
:1000400025E0969587952A95E1F790936200809335
:1000500061007894D5DF843E92401CF4C49A81E01C
:1000600008958091610090916200892B99F7C49A5C
:1000700080E00895C5DF853E9240ACF081E08AD0F3
:1000800080E797E1DBDF81110EC0C39882E082D068
:1000900080ED97E047D082E07DD080ED97E042D0C0
:1000A00082E078D0C39A88EE93E03CD0E3CF4CD086
:1000B000BC9ABB9A089529D0FADFC49AC39AA0DFEC
:1000C0008093600084EF91E08DC01F920F920FB675
:1000D0000F9211248F939F93809161009091620001
:1000E000892B49F080916100909162000197909373
:1000F00062008093610081B5806481BD9F918F9182
:100100000F900FBE0F901F901895F894A89581B589
:10011000886181BD89E481BD109262001092610006
:1001200078940895292FF894822F8695869590E0EB
:100130009093620080936100789480916100909127
:100140006200892BD1F7089587B1816287B986B1A2
:10015000836886B90895369A3699FECF84B125B161
:1001600090E0922B08954091600050E09A0193E056
:10017000220F331F9A95E1F7241B350BA901480F75
:10018000511DCA0123E0959587952A95E1F7809343
:1001900060000895EF92FF920F931F93CF93E12C8D
:1001A000F12C082F10E0E016F106ACF4C9E08C2F1A
:1001B00024D084E690E0B6DFC150C130C1F78C2F67
:1001C0001CD084E690E0AEDFCF5FC930C1F78FEF7F
:1001D000E81AF80AE8CF13BECF911F910F91FF9054
:1001E000EF900895CF93DF93EC0181E006D0CE012C
:1001F00099DF13BEDF91CF910895F894B99A92E4F4
:100200009FBD93E093BF789486BF089554DF32DF9B
:00000001FF
