:1000000009C021C020C01FC01EC01DC01CC01BC015
:10001000A4C019C011241FBECFE9CDBF10E0A0E6D7
:10002000B0E0ECE5F2E002C005900D92A436B10715
:10003000D9F720E0A4E6B0E001C01D92A636B207D1
:10004000E1F789D009C1DCCF0F931F93CF930091C3
:10005000640010916500C0E080916400909165009B
:10006000801B910B029728F4A2D0C817ACF7C82FB9
:10007000F3CF8C2FCF911F910F9108950F931F9362
:10008000CF93DF930091640010916500C498EC0158
:1000900085E0D695C7958A95E1F7D6DF9091630004
:1000A000891718F4C49A81E00BC080916400909184
:1000B0006500801B910B8C179D0778F3C49A80E034
:1000C000DF91CF911F910F910895C098C0E0BCDFE0
:1000D000909163009817D8F781E06ED0809161000D
:1000E00090916200CBDF8111F1CFCF5FC39A82E0A4
:1000F00063D02FE789EA93E0215080409040E1F7F8
:1001000000C0000082E058D02FE789EA93E0215038
:1001100080409040E1F700C0000082E04DD02FEF1A
:100120008BE49DE1215080409040E1F700C0000049
:1001300080916000C81708F0FFCFC398C8CFBC9A61
:10014000BB9A0895FCDF2ED0C49AC39881E41CD0DA
:1001500084EF91E062C0F6DFB8DF1F920F920FB616
:100160000F9211248F939F9380916400909165006A
:10017000019690936500809364009F918F910F90FA
:100180000FBE0F901F901895A8952FB7F89491B5B2
:10019000986191BD81BD2FBF1092650010926400DF
:1001A0007894089581E287B984E886B90895369AEB
:1001B0003699FECF85B10895EF92FF920F931F936A
:1001C000CF93082F3AD0E12CF12C10E0E016F10685
:1001D000DCF4C0E88C2F3BD087EB9BE00197F1F774
:1001E00000C00000C150C031A9F78C2F30D087EB80
:1001F0009BE00197F1F700C00000CF5FC038A9F77E
:100200009FEFE91AF90AE2CF83B7887F83BFCF91C6
:100210001F910F91FF90EF9008950FD080E117D0BC
:100220002FE789EA93E0215080409040E1F700C039
:10023000000083B7887F83BF0895F894B99AC19A64
:1002400082E08FBD8FB580618FBD7894089593B79C
:0C025000926093BF86BF0895F894FFCF22
:04025C0003B80BFFD9
:00000001FF
