:1000000009C021C020C01FC01EC01DC01CC01BC015
:10001000CCC019C011241FBECFE9CDBF10E0A0E6AF
:10002000B0E0E0E6F2E002C005900D92A036B10724
:10003000D9F720E0A0E6B0E001C01D92A938B207D0
:10004000E1F72BD00BC1DCCF0F931F93CF93DF933E
:100050000091880010918900C0E0D0E08091880074
:10006000909189008017910731F4C1D0C817D90742
:10007000ACF7EC01F3CFCE01DF91CF911F910F913F
:100080000895BC9ABB9A0895FCDFACD0C49AC3987B
:1000900081E49CD084EF91E0B2C0F6DFBC98C49AB2
:1000A000BB9AC39AB49BFECFCFDF9250EC01D6959A
:1000B000C795DC2F60E070E087E390E0CCD06C2F38
:1000C00085E090E0BBD060E086E090E0B7D0609142
:1000D00088007091890087E090E0BDD000E610E0D4
:1000E0007801C8E2CC2381F0B49B0EC0ADDF925002
:1000F00096958795282F2D1B2230A0F3F701819329
:100100007F01C150D82FEECFC39889E090E0F8016D
:1001100061918F01EC01219691D0CE01E197B9F761
:1001200060E081E390E08AD060918800709189005E
:1001300082E390E090D0FFEF22E587E0F15020408D
:100140008040E1F700C000007FDF9250BC0176954F
:10015000679584E390E072D09FEBE4EDF1E091507D
:10016000E040F040E1F700C000006EDF9250BC01BB
:100170007695679585E390E061D02FEB84ED91E073
:10018000215080409040E1F700C000005DDF9250B8
:10019000BC017695679586E390E050D064E372E108
:1001A00087E390E058D0C39AFFCF1F920F920FB60B
:1001B0000F9211248F93809188008F5F8093880025
:1001C0008F910F900FBE0F901F901895A8952FB785
:1001D000F89491B5986191BD81BD2FBF10928800B0
:1001E0007894089581E087B983E886B90895369AAE
:1001F0003699FECF84B125B190E0922B08950FD0AF
:1002000080E117D02FE789EA93E0215080409040A9
:10021000E1F700C0000083B7887F83BF0895F8949A
:10022000B99AC19A82E08FBD8FB580618FBD7894F5
:10023000089593B7926093BF86BF0895262FE199E2
:10024000FECF1CBA8EBB2DBB0FB6F894E29AE19A92
:100250000FBE01960895F2DF272FF1CFF894FFCF5C
:00000001FF
