:10000000CF93DF93F89484E690E09093640080931C
:1000100063007894C0E0D0E0809163009091640028
:10002000892B41F09CD0A3D090E0C817D907A4F742
:10003000EC01F2CFCE01DF91CF910895C498F894EE
:1000400090936400809363007894DADF843E92405A
:100050001CF4C49A81E0089580916300909164003B
:10006000892B99F7C49A80E00895CADF853E9240B3
:10007000ACF081E093D080E797E1E0DF81110EC022
:10008000C39882E08BD080ED97E055D082E086D097
:1000900080ED97E050D082E081D0C39A88EE93E063
:1000A0004AD0E3CF55D0BC9ABB9A089531D0FADF3D
:1000B000C49AC39AA5DF8093620084EF91E096C052
:1000C0001F920F920FB60F9211248F939F938091DE
:1000D0006000815087FD03C08093600012C084E0FF
:1000E000809360008091630090916400892B49F0B7
:1000F00080916300909164000197909364008093D5
:1001000063009F918F910F900FBE0F901F901895D5
:1001100083B7816083BF8FB583608FBD89B78260ED
:1001200089BF12BE109264001092630084E0809335
:10013000600078940895F89490936400809363002D
:1001400078948091630090916400892BD1F7089591
:1001500087B1816287B986B1836886B90895369A76
:100160003699FECF84B125B190E0922B089540914D
:10017000620050E09A0193E0220F331F9A95E1F755
:10018000241B350BA901480F511DCA0123E0959589
:1001900087952A95E1F7809362000895EF92FF9288
:1001A0000F931F93CF93E12CF12C082F10E0E01652
:1001B000F106ACF4C9E08C2F24D084E690E0BBDFDC
:1001C000C150C130C1F78C2F1CD084E690E0B3DF62
:1001D000CF5FC930C1F78FEFE81AF80AE8CF13BE36
:1001E000CF911F910F91FF90EF900895CF93DF93E0
:1001F000EC0181E006D0CE019EDF13BEDF91CF91EE
:100200000895F894B99A92E49FBD93E093BF7894CF
:0802100086BF08954BDF29DFD2
:020218000400E0
:00000001FF
